:1000000001308A007E2900000A108A100A11820736
:10001000013403340234063404340C340834093413
:10002000C939EC326D10D332E334EE347A1D00005E
:100030008A29E1332014D214A0296F362014CC145D
:1000400000010A06CD37F4377210D330E7302005AF
:10005000C437EE3AF93772172E1700010A06CD376A
:10006000F4377210D337EC302005C437EE3AF93745
:1000700072172E1700010A06CD37F4377210C43AF2
:10008000F23AF93772172E1700002A3084008313D2
:100090000008031959280130F800F701F70B4E2822
:1000A000F80B4D284A30F700F70B54285728800BDF
:1000B0004B280800300EF039F7000F3008057704A0
:1000C0008800000008146428081008000808F700D9
:1000D000080E0F39F8000800831608108810081160
:1000E000831288100F3083160805F03888008312B9
:1000F000081500000814000066207808B0000810F9
:1001000000000814000066207808AF0008100F30C7
:100110008316080588008312300EF700F030F705CB
:1001200077082F04F8007808AF00AF1B72282D1C49
:1001300088102D18881400000811000008102E0ED9
:10014000AF000F30AF052F08B0005A202E080F392E
:10015000AF00B0005A2008002830A6000C30A700DD
:100160000130A8000630A9000810881008110F30CF
:100170008316080588000810881008110F308312B4
:10018000AA0045200130A5002508033C031CD02807
:100190000330B0005A200530AA004520A50AC42823
:1001A0000230B0005A200530AA004520A5012508DC
:1001B000033C031CE728263025078400831300082E
:1001C000AA00AD012A08AE006C20A50AD7288A1122
:1001D0000A12AE292A0BED28F0284030AB00F12896
:1001E000AB0101302902AB072B088038AC00AD0110
:1001F0002C08AE006C2008002808073A03190A29C9
:100200000B3A03190F29063A03191729023A031961
:100210001D2922290130A900AA00EA202729AD01C1
:100220000130AE006C200230AA00452027290130A1
:10023000A9000230AA00EA202729AD011030AE0043
:100240006C2027290130AD002808AE006C20080082
:100250000B08A5008B13831603178C170C140000D2
:10026000000083120313A51B8B1703170C087F399B
:1002700003197C290313A50003170D080313A60017
:1002800003170F080313A7002508A800FC20260861
:1002900003178D000313270803178F0003130B08A0
:1002A000A8008B13831603178C170C140000000092
:1002B00083120313A81B8B1703170C0D0E0D7F3928
:1002C00003197C290313A50003170D080313A600C7
:1002D00003170F080313A7002508A800FC20260811
:1002E00003178D000313270803178F008D0A0319C6
:1002F0008F0A0313282903170313080003081F3963
:100300008300193083169900A6309800903083122C
:100310009800F430A100A201A401A30183161F14C8
:100320009F141F159F11831309128312900100302F
:10033000F80092000030831692001F149F141F15BE
:100340009F1183121F10F03097059D050030831612
:1003500086008800831288018601AC2810300317BC
:100360008D0000308F0003132821C830AA004520DB
:10037000183003178D0000308F0003132821C83078
:10038000AA0045206E30A2008C1EC4291A08A200C3
:1003900022080C1EC92999002208523C0319D429AD
:1003A0002208723C031DF129213003178D00003013
:1003B0008F00031328212008073C031CEE29200886
:1003C0000420A50086002108AA0045202008073C3B
:1003D0000319A0018C1AEE29A00ADB298C1AF12935
:1003E000CC2922084C3C0319F92922086C3C031D36
:1003F000132A2E3003178D0000308F00031328219D
:10040000A008031D052A0730A00020080420A5002D
:1004100086002108AA0045208C1A102AA003002A71
:100420008C1A132AF1293B3003178D0000308F00FE
:0804300003132821C229630017
:02400E00733B02
:00000001FF
;PIC16F877
;CRC=9F6C  CREATED="12-Eyl-22 13:48"
